{
  "_format": "hh-sol-artifact-1",
  "contractName": "Lottery",
  "sourceName": "contracts/Lottery.sol",
  "abi": [
    {
      "inputs": [],
      "stateMutability": "nonpayable",
      "type": "constructor"
    },
    {
      "inputs": [],
      "name": "enter",
      "outputs": [],
      "stateMutability": "payable",
      "type": "function"
    },
    {
      "inputs": [],
      "name": "getPlayers",
      "outputs": [
        {
          "internalType": "address[]",
          "name": "",
          "type": "address[]"
        }
      ],
      "stateMutability": "view",
      "type": "function"
    },
    {
      "inputs": [],
      "name": "manager",
      "outputs": [
        {
          "internalType": "address",
          "name": "",
          "type": "address"
        }
      ],
      "stateMutability": "view",
      "type": "function"
    },
    {
      "inputs": [],
      "name": "minimumAmount",
      "outputs": [
        {
          "internalType": "uint256",
          "name": "",
          "type": "uint256"
        }
      ],
      "stateMutability": "view",
      "type": "function"
    },
    {
      "inputs": [],
      "name": "pickWinner",
      "outputs": [],
      "stateMutability": "nonpayable",
      "type": "function"
    },
    {
      "inputs": [
        {
          "internalType": "uint256",
          "name": "",
          "type": "uint256"
        }
      ],
      "name": "players",
      "outputs": [
        {
          "internalType": "address",
          "name": "",
          "type": "address"
        }
      ],
      "stateMutability": "view",
      "type": "function"
    }
  ],
  "bytecode": "0x608060405234801561001057600080fd5b50336000806101000a81548173ffffffffffffffffffffffffffffffffffffffff021916908373ffffffffffffffffffffffffffffffffffffffff16021790555067016345785d8a0000600181905550610a3e8061006f6000396000f3fe6080604052600436106100555760003560e01c8063481c6a751461005a5780635d495aea146100855780638b5b9ccc1461009c578063bb0c8298146100c7578063e97dcb62146100f2578063f71d96cb146100fc575b600080fd5b34801561006657600080fd5b5061006f610139565b60405161007c9190610587565b60405180910390f35b34801561009157600080fd5b5061009a61015d565b005b3480156100a857600080fd5b506100b1610351565b6040516100be9190610660565b60405180910390f35b3480156100d357600080fd5b506100dc6103df565b6040516100e9919061069b565b60405180910390f35b6100fa6103e5565b005b34801561010857600080fd5b50610123600480360381019061011e91906106e7565b61048f565b6040516101309190610587565b60405180910390f35b60008054906101000a900473ffffffffffffffffffffffffffffffffffffffff1681565b60008054906101000a900473ffffffffffffffffffffffffffffffffffffffff1673ffffffffffffffffffffffffffffffffffffffff163373ffffffffffffffffffffffffffffffffffffffff16146101eb576040517f08c379a00000000000000000000000000000000000000000000000000000000081526004016101e290610771565b60405180910390fd5b600060028054905003610233576040517f08c379a000000000000000000000000000000000000000000000000000000000815260040161022a906107dd565b60405180910390fd5b60006002805490506102436104ce565b61024d919061082c565b90506000600282815481106102655761026461085d565b5b9060005260206000200160009054906101000a900473ffffffffffffffffffffffffffffffffffffffff16905060008173ffffffffffffffffffffffffffffffffffffffff16476040516102b8906108bd565b60006040518083038185875af1925050503d80600081146102f5576040519150601f19603f3d011682016040523d82523d6000602084013e6102fa565b606091505b505090508061033e576040517f08c379a00000000000000000000000000000000000000000000000000000000081526004016103359061091e565b60405180910390fd5b6002600061034c9190610508565b505050565b606060028054806020026020016040519081016040528092919081815260200182805480156103d557602002820191906000526020600020905b8160009054906101000a900473ffffffffffffffffffffffffffffffffffffffff1673ffffffffffffffffffffffffffffffffffffffff168152602001906001019080831161038b575b5050505050905090565b60015481565b60015434101561042a576040517f08c379a00000000000000000000000000000000000000000000000000000000081526004016104219061098a565b60405180910390fd5b6002339080600181540180825580915050600190039060005260206000200160009091909190916101000a81548173ffffffffffffffffffffffffffffffffffffffff021916908373ffffffffffffffffffffffffffffffffffffffff160217905550565b6002818154811061049f57600080fd5b906000526020600020016000915054906101000a900473ffffffffffffffffffffffffffffffffffffffff1681565b600044426002805490506040516020016104ea939291906109cb565b6040516020818303038152906040528051906020012060001c905090565b50805460008255906000526020600020908101906105269190610529565b50565b5b8082111561054257600081600090555060010161052a565b5090565b600073ffffffffffffffffffffffffffffffffffffffff82169050919050565b600061057182610546565b9050919050565b61058181610566565b82525050565b600060208201905061059c6000830184610578565b92915050565b600081519050919050565b600082825260208201905092915050565b6000819050602082019050919050565b6105d781610566565b82525050565b60006105e983836105ce565b60208301905092915050565b6000602082019050919050565b600061060d826105a2565b61061781856105ad565b9350610622836105be565b8060005b8381101561065357815161063a88826105dd565b9750610645836105f5565b925050600181019050610626565b5085935050505092915050565b6000602082019050818103600083015261067a8184610602565b905092915050565b6000819050919050565b61069581610682565b82525050565b60006020820190506106b0600083018461068c565b92915050565b600080fd5b6106c481610682565b81146106cf57600080fd5b50565b6000813590506106e1816106bb565b92915050565b6000602082840312156106fd576106fc6106b6565b5b600061070b848285016106d2565b91505092915050565b600082825260208201905092915050565b7f4d616e61676572206f6e6c792e00000000000000000000000000000000000000600082015250565b600061075b600d83610714565b915061076682610725565b602082019050919050565b6000602082019050818103600083015261078a8161074e565b9050919050565b7f4e6f20706c6179657273207965742e0000000000000000000000000000000000600082015250565b60006107c7600f83610714565b91506107d282610791565b602082019050919050565b600060208201905081810360008301526107f6816107ba565b9050919050565b7f4e487b7100000000000000000000000000000000000000000000000000000000600052601260045260246000fd5b600061083782610682565b915061084283610682565b925082610852576108516107fd565b5b828206905092915050565b7f4e487b7100000000000000000000000000000000000000000000000000000000600052603260045260246000fd5b600081905092915050565b50565b60006108a760008361088c565b91506108b282610897565b600082019050919050565b60006108c88261089a565b9150819050919050565b7f5472616e73616374696f6e206661696c65642e00000000000000000000000000600082015250565b6000610908601383610714565b9150610913826108d2565b602082019050919050565b60006020820190508181036000830152610937816108fb565b9050919050565b7f4c657373207468616e206d696e696d756d20616d6f756e742e00000000000000600082015250565b6000610974601983610714565b915061097f8261093e565b602082019050919050565b600060208201905081810360008301526109a381610967565b9050919050565b6000819050919050565b6109c56109c082610682565b6109aa565b82525050565b60006109d782866109b4565b6020820191506109e782856109b4565b6020820191506109f782846109b4565b60208201915081905094935050505056fea2646970667358221220dba7e2173b514b30fc8f9676834198adbe4cc56f10b1b3888bfe1906d2a0b97564736f6c63430008120033",
  "linkReferences": {},
  "deployedLinkReferences": {}
}